******************************************************************************
                  TI ARM Linker PC v20.2.1                     
******************************************************************************
>> Linked Mon Aug 31 16:55:26 2020

OUTPUT FILE NAME:   <Lab04_SoftwareDesign.out>
ENTRY POINT SYMBOL: "_c_int00_noargs"  address: 00000aa5


MEMORY CONFIGURATION

         name            origin    length      used     unused   attr    fill
----------------------  --------  ---------  --------  --------  ----  --------
  MAIN                  00000000   00040000  00000c20  0003f3e0  R  X
  INFO                  00200000   00004000  00000000  00004000  R  X
  SRAM_CODE             01000000   00010000  00000218  0000fde8  RW X
  SRAM_DATA             20000000   00010000  00000218  0000fde8  RW  


SEGMENT ALLOCATION MAP

run origin  load origin   length   init length attrs members
----------  ----------- ---------- ----------- ----- -------
00000000    00000000    00000c20   00000c20    r-x
  00000000    00000000    000000e4   000000e4    r-- .intvecs
  000000e4    000000e4    00000a34   00000a34    r-x .text
  00000b18    00000b18    000000c8   000000c8    r-- .const
  00000be0    00000be0    00000040   00000040    r-- .cinit
20000000    20000000    00000018   00000000    rw-
  20000000    20000000    00000014   00000000    rw- .data
  20000014    20000014    00000004   00000000    rw- .bss
2000fe00    2000fe00    00000200   00000000    rw-
  2000fe00    2000fe00    00000200   00000000    rw- .stack


SECTION ALLOCATION MAP

 output                                  attributes/
section   page    origin      length       input sections
--------  ----  ----------  ----------   ----------------
.intvecs   0    00000000    000000e4     
                  00000000    000000e4     startup_msp432p401r_ccs.obj (.intvecs:retain)

.text      0    000000e4    00000a34     
                  000000e4    0000032c     system_msp432p401r.obj (.text)
                  00000410    000001e4     Solution.obj (.text)
                  000005f4    000001d0     Classifier.obj (.text)
                  000007c4    00000198     Lab04_SoftwareDesignmain.obj (.text)
                  0000095c    0000009c     rtsv7M4_T_le_v4SPD16_eabi.lib : memcpy_t2.asm.obj (.text)
                  000009f8    00000068                                   : copy_decompress_lzss.c.obj (.text:decompress:lzss:__TI_decompress_lzss)
                  00000a60    00000044                                   : autoinit.c.obj (.text:__TI_auto_init_nobinit_nopinit:__TI_auto_init_nobinit_nopinit)
                  00000aa4    00000034                                   : boot_cortex_m.c.obj (.text:_c_int00_noargs:_c_int00_noargs)
                  00000ad8    0000001c                                   : copy_zero_init.c.obj (.text:decompress:ZI:__TI_zero_init_nomemset:__TI_zero_init_nomemset)
                  00000af4    0000000e                                   : copy_decompress_none.c.obj (.text:decompress:none:__TI_decompress_none)
                  00000b02    0000000e     startup_msp432p401r_ccs.obj (.text)
                  00000b10    00000004     rtsv7M4_T_le_v4SPD16_eabi.lib : pre_init.c.obj (.text:_system_pre_init)
                  00000b14    00000004                                   : exit.c.obj (.text:abort:abort)

.const     0    00000b18    000000c8     
                  00000b18    00000048     Lab04_SoftwareDesignmain.obj (.const:CornerCases)
                  00000b60    00000040     Lab04_SoftwareDesignmain.obj (.const:ADCBuffer)
                  00000ba0    00000040     Lab04_SoftwareDesignmain.obj (.const:DistanceBuffer)

.cinit     0    00000be0    00000040     
                  00000be0    00000019     (.cinit..data.load) [load image, compression = lzss]
                  00000bf9    00000003     --HOLE-- [fill = 0]
                  00000bfc    0000000c     (__TI_handler_table)
                  00000c08    00000008     (.cinit..bss.load) [load image, compression = zero_init]
                  00000c10    00000010     (__TI_cinit_table)

.init_array 
*          0    00000000    00000000     UNINITIALIZED

.binit     0    00000000    00000000     

.data      0    20000000    00000014     UNINITIALIZED
                  20000000    00000010     Solution.obj (.data)
                  20000010    00000004     system_msp432p401r.obj (.data)

.bss       0    20000014    00000004     UNINITIALIZED
                  20000014    00000004     (.common:errors)

.stack     0    2000fe00    00000200     UNINITIALIZED
                  2000fe00    00000004     rtsv7M4_T_le_v4SPD16_eabi.lib : boot_cortex_m.c.obj (.stack)
                  2000fe04    000001fc     --HOLE--

__llvm_prf_cnts 
*          0    20000000    00000000     UNINITIALIZED

MODULE SUMMARY

       Module                         code   ro data   rw data
       ------                         ----   -------   -------
    ..\
       Solution.obj                   484    0         32     
    +--+------------------------------+------+---------+---------+
       Total:                         484    0         32     
                                                              
    .\
       system_msp432p401r.obj         812    0         8      
       Lab04_SoftwareDesignmain.obj   408    200       8      
       Classifier.obj                 464    0         0      
       startup_msp432p401r_ccs.obj    14     228       0      
    +--+------------------------------+------+---------+---------+
       Total:                         1698   428       16     
                                                              
    C:\ti\ccs1010\ccs\tools\compiler\ti-cgt-arm_20.2.1.LTS\lib\rtsv7M4_T_le_v4SPD16_eabi.lib
       memcpy_t2.asm.obj              156    0         0      
       copy_decompress_lzss.c.obj     104    0         0      
       autoinit.c.obj                 68     0         0      
       boot_cortex_m.c.obj            52     0         0      
       copy_zero_init.c.obj           28     0         0      
       copy_decompress_none.c.obj     14     0         0      
       exit.c.obj                     4      0         0      
       pre_init.c.obj                 4      0         0      
    +--+------------------------------+------+---------+---------+
       Total:                         430    0         0      
                                                              
       Stack:                         0      0         1024   
       Linker Generated:              0      61        0      
    +--+------------------------------+------+---------+---------+
       Grand Total:                   2612   489       1072   


LINKER GENERATED COPY TABLES

__TI_cinit_table @ 00000c10 records: 2, size/record: 8, table size: 16
	.data: load addr=00000be0, load size=00000019 bytes, run addr=20000000, run size=00000014 bytes, compression=lzss
	.bss: load addr=00000c08, load size=00000008 bytes, run addr=20000014, run size=00000004 bytes, compression=zero_init


LINKER GENERATED HANDLER TABLE

__TI_handler_table @ 00000bfc records: 3, size/record: 4, table size: 12
	index: 0, handler: __TI_decompress_lzss
	index: 1, handler: __TI_decompress_none
	index: 2, handler: __TI_zero_init


GLOBAL SYMBOLS: SORTED ALPHABETICALLY BY Name 

address   name                          
-------   ----                          
00000b0f  ADC14_IRQHandler              
00000b60  ADCBuffer                     
00000b0f  AES256_IRQHandler             
00000b0f  BusFault_Handler              
00000b15  C$$EXIT                       
00000b0f  COMP_E0_IRQHandler            
00000b0f  COMP_E1_IRQHandler            
00000b0f  CS_IRQHandler                 
2000000c  Centermin                     
20000008  Centeropen                    
0000062d  Classify                      
000005f5  Convert                       
00000b18  CornerCases                   
00000b0f  DMA_ERR_IRQHandler            
00000b0f  DMA_INT0_IRQHandler           
00000b0f  DMA_INT1_IRQHandler           
00000b0f  DMA_INT2_IRQHandler           
00000b0f  DMA_INT3_IRQHandler           
00000b0f  DebugMon_Handler              
00000b0f  Default_Handler               
00000ba0  DistanceBuffer                
00000b0f  EUSCIA0_IRQHandler            
00000b0f  EUSCIA1_IRQHandler            
00000b0f  EUSCIA2_IRQHandler            
00000b0f  EUSCIA3_IRQHandler            
00000b0f  EUSCIB0_IRQHandler            
00000b0f  EUSCIB1_IRQHandler            
00000b0f  EUSCIB2_IRQHandler            
00000b0f  EUSCIB3_IRQHandler            
00000b0f  FLCTL_IRQHandler              
00000b0f  FPU_IRQHandler                
00000b0f  HardFault_Handler             
00000b0f  MemManage_Handler             
00000b0f  NMI_Handler                   
00000b0f  PCM_IRQHandler                
00000b0f  PORT1_IRQHandler              
00000b0f  PORT2_IRQHandler              
00000b0f  PORT3_IRQHandler              
00000b0f  PORT4_IRQHandler              
00000b0f  PORT5_IRQHandler              
00000b0f  PORT6_IRQHandler              
00000b0f  PSS_IRQHandler                
00000b0f  PendSV_Handler                
000007c5  Program4_1                    
0000081b  Program4_2                    
000008b9  Program4_3                    
00000b0f  RTC_C_IRQHandler              
00000b03  Reset_Handler                 
00000b0f  SVC_Handler                   
00000411  SetParametersForSolution      
20000000  Sidemax                       
20000004  Sidemin                       
00000439  Solution                      
00000b0f  SysTick_Handler               
20000010  SystemCoreClock               
000000e5  SystemCoreClockUpdate         
00000359  SystemInit                    
00000b0f  T32_INT1_IRQHandler           
00000b0f  T32_INT2_IRQHandler           
00000b0f  T32_INTC_IRQHandler           
00000b0f  TA0_0_IRQHandler              
00000b0f  TA0_N_IRQHandler              
00000b0f  TA1_0_IRQHandler              
00000b0f  TA1_N_IRQHandler              
00000b0f  TA2_0_IRQHandler              
00000b0f  TA2_N_IRQHandler              
00000b0f  TA3_0_IRQHandler              
00000b0f  TA3_N_IRQHandler              
00000b0f  UsageFault_Handler            
4000480c  WDTCTL_SYM                    
00000b0f  WDT_A_IRQHandler              
20010000  __STACK_END                   
00000200  __STACK_SIZE                  
00000c10  __TI_CINIT_Base               
00000c20  __TI_CINIT_Limit              
00000bfc  __TI_Handler_Table_Base       
00000c08  __TI_Handler_Table_Limit      
00000a61  __TI_auto_init_nobinit_nopinit
000009f9  __TI_decompress_lzss          
00000af5  __TI_decompress_none          
ffffffff  __TI_pprof_out_hndl           
ffffffff  __TI_prof_data_size           
ffffffff  __TI_prof_data_start          
00000000  __TI_static_base__            
00000ad9  __TI_zero_init_nomemset       
0000095d  __aeabi_memcpy                
0000095d  __aeabi_memcpy4               
0000095d  __aeabi_memcpy8               
ffffffff  __binit__                     
ffffffff  __c_args__                    
UNDEFED   __mpu_init                    
2000fe00  __stack                       
20000000  __start___llvm_prf_cnts       
20000000  __stop___llvm_prf_cnts        
00000aa5  _c_int00_noargs               
UNDEFED   _system_post_cinit            
00000b11  _system_pre_init              
00000b15  abort                         
ffffffff  binit                         
20000014  errors                        
00000000  interruptVectors              
00000945  main                          
0000095d  memcpy                        


GLOBAL SYMBOLS: SORTED BY Symbol Address 

address   name                          
-------   ----                          
00000000  __TI_static_base__            
00000000  interruptVectors              
000000e5  SystemCoreClockUpdate         
00000200  __STACK_SIZE                  
00000359  SystemInit                    
00000411  SetParametersForSolution      
00000439  Solution                      
000005f5  Convert                       
0000062d  Classify                      
000007c5  Program4_1                    
0000081b  Program4_2                    
000008b9  Program4_3                    
00000945  main                          
0000095d  __aeabi_memcpy                
0000095d  __aeabi_memcpy4               
0000095d  __aeabi_memcpy8               
0000095d  memcpy                        
000009f9  __TI_decompress_lzss          
00000a61  __TI_auto_init_nobinit_nopinit
00000aa5  _c_int00_noargs               
00000ad9  __TI_zero_init_nomemset       
00000af5  __TI_decompress_none          
00000b03  Reset_Handler                 
00000b0f  ADC14_IRQHandler              
00000b0f  AES256_IRQHandler             
00000b0f  BusFault_Handler              
00000b0f  COMP_E0_IRQHandler            
00000b0f  COMP_E1_IRQHandler            
00000b0f  CS_IRQHandler                 
00000b0f  DMA_ERR_IRQHandler            
00000b0f  DMA_INT0_IRQHandler           
00000b0f  DMA_INT1_IRQHandler           
00000b0f  DMA_INT2_IRQHandler           
00000b0f  DMA_INT3_IRQHandler           
00000b0f  DebugMon_Handler              
00000b0f  Default_Handler               
00000b0f  EUSCIA0_IRQHandler            
00000b0f  EUSCIA1_IRQHandler            
00000b0f  EUSCIA2_IRQHandler            
00000b0f  EUSCIA3_IRQHandler            
00000b0f  EUSCIB0_IRQHandler            
00000b0f  EUSCIB1_IRQHandler            
00000b0f  EUSCIB2_IRQHandler            
00000b0f  EUSCIB3_IRQHandler            
00000b0f  FLCTL_IRQHandler              
00000b0f  FPU_IRQHandler                
00000b0f  HardFault_Handler             
00000b0f  MemManage_Handler             
00000b0f  NMI_Handler                   
00000b0f  PCM_IRQHandler                
00000b0f  PORT1_IRQHandler              
00000b0f  PORT2_IRQHandler              
00000b0f  PORT3_IRQHandler              
00000b0f  PORT4_IRQHandler              
00000b0f  PORT5_IRQHandler              
00000b0f  PORT6_IRQHandler              
00000b0f  PSS_IRQHandler                
00000b0f  PendSV_Handler                
00000b0f  RTC_C_IRQHandler              
00000b0f  SVC_Handler                   
00000b0f  SysTick_Handler               
00000b0f  T32_INT1_IRQHandler           
00000b0f  T32_INT2_IRQHandler           
00000b0f  T32_INTC_IRQHandler           
00000b0f  TA0_0_IRQHandler              
00000b0f  TA0_N_IRQHandler              
00000b0f  TA1_0_IRQHandler              
00000b0f  TA1_N_IRQHandler              
00000b0f  TA2_0_IRQHandler              
00000b0f  TA2_N_IRQHandler              
00000b0f  TA3_0_IRQHandler              
00000b0f  TA3_N_IRQHandler              
00000b0f  UsageFault_Handler            
00000b0f  WDT_A_IRQHandler              
00000b11  _system_pre_init              
00000b15  C$$EXIT                       
00000b15  abort                         
00000b18  CornerCases                   
00000b60  ADCBuffer                     
00000ba0  DistanceBuffer                
00000bfc  __TI_Handler_Table_Base       
00000c08  __TI_Handler_Table_Limit      
00000c10  __TI_CINIT_Base               
00000c20  __TI_CINIT_Limit              
20000000  Sidemax                       
20000000  __start___llvm_prf_cnts       
20000000  __stop___llvm_prf_cnts        
20000004  Sidemin                       
20000008  Centeropen                    
2000000c  Centermin                     
20000010  SystemCoreClock               
20000014  errors                        
2000fe00  __stack                       
20010000  __STACK_END                   
4000480c  WDTCTL_SYM                    
ffffffff  __TI_pprof_out_hndl           
ffffffff  __TI_prof_data_size           
ffffffff  __TI_prof_data_start          
ffffffff  __binit__                     
ffffffff  __c_args__                    
ffffffff  binit                         
UNDEFED   __mpu_init                    
UNDEFED   _system_post_cinit            

[103 symbols]
